:1000000012C02CC02BC02AC029C028C027C026C0BF
:1000100025C024C023C0C2C021C020C01FC01EC034
:100020001DC01CC01BC011241FBECFE5D4E0DEBF25
:10003000CDBF10E0A0E6B0E0E2E3F8E002C005903A
:100040000D92A038B107D9F711E0A0E8B0E001C0E7
:100050001D92A230B107E1F715D1E9C3D1CF9C01C0
:1000600040E050E0CA01B901605A7C41894E9F4F7F
:10007000F3E0660F771F881F991FFA95D1F7E4E028
:10008000220F331F441F551FEA95D1F72FD321505C
:1000900030408FEF809381008091810080938000B9
:1000A00030BD29B986E880BD88E98AB97894089579
:1000B000809180008F3F11F4E0E01DC0E09180004E
:1000C000FF27E7FDF095EE57FF4FE081909180000C
:1000D00080918100981741F48FEF80938100809187
:1000E00081008093800007C0809180008F5F8093A3
:1000F0008000809180008E2F08955D9BFECF8CB98B
:100100000895FC0104C05D9BFECF8CB931968081BF
:100110008823C9F70895EF92FF920F931F93CF930F
:10012000DF937C018B01C0E0D0E006C0C1DFF701A6
:10013000EC0FFD1F80832196C017D107B8F3DF9124
:10014000CF911F910F91FF90EF90089580918000C3
:100150008F3F11F490E01AC090918000809181004F
:10016000981734F490918100809180009F5F0DC0BA
:100170009091800080918100891714F091E006C071
:1001800090918100809180009F57981B892F08953E
:1001900001C08EDFDBDF8823E1F708951F920F9205
:1001A0000FB60F9211242F933F934F938F939F93EA
:1001B000EF93FF934CB1809181008F3721F48091B0
:1001C0008000882371F08091810020918000992720
:1001D00087FD90950196332727FD30958217930769
:1001E00039F4809180008F5F80938000809180003F
:1001F000809181008F3719F41092810005C08091A1
:1002000081008F5F80938100E0918100FF27E7FDEF
:10021000F095EE57FF4F4083809180008F3F11F49F
:1002200010928000FF91EF919F918F914F913F919C
:100230002F910F900FBE0F901F9018951F93CF9383
:10024000DF93EC01162F82DF8117E8F3CE01612FD7
:1002500070E061DFDF91CF911F91089569D2089519
:10026000DB010D900020E9F71197A61BB70B4A2F71
:1002700050E07BD220E030E0892B11F421E030E027
:10028000C90108950F931F93DF93CF93CDB7DEB7C6
:100290002A970FB6F894DEBF0FBECDBF80E895E277
:1002A000DEDE8E010F5F1F4FC80163E0C7DFC801AC
:1002B00060E670E0D5DF019739F482E090E069E014
:1002C00070E041E050E011D1C80164E670E0C8DFA1
:1002D000019739F482E090E069E070E040E050E09E
:1002E00004D1C80168E670E0BBDF019739F482E011
:1002F00090E06BE570E040E050E0F7D0C8016AE6BE
:1003000070E0AEDF019739F482E090E06BE570E0D9
:1003100041E050E0EAD0C8016CE670E0A1DF01974F
:1003200039F482E090E06BE570E042E050E0DDD02F
:10033000C8016EE670E094DF019739F482E090E046
:100340006BE570E043E050E0D0D0C80160E770E0BA
:1003500087DF019739F482E090E06BE570E044E0DC
:1003600050E0C3D0C80162E770E07ADF019739F44A
:1003700082E090E06BE570E045E050E0B6D0C80167
:1003800064E770E06DDF019739F482E090E06BE59F
:1003900070E046E050E0A9D0C80166E770E060DF99
:1003A000019739F482E090E06BE570E047E050E0BF
:1003B0009CD0C80168E770E053DF019739F482E010
:1003C00090E06BE570E048E050E08FD0C8016AE74C
:1003D00070E046DF019739F482E090E06BE570E071
:1003E00049E050E082D0C8016CE770E039DF019746
:1003F00009F05ACF82E090E06BE570E04AE050E00F
:1004000074D052CF0F931F93DF93CF93CDB7DEB746
:1004100027970FB6F894DEBF0FBECDBF8E010F5FDA
:100420001F4FA8012AE030E0B8D1C8016ADE279644
:100430000FB6F894DEBF0FBECDBFCF91DF911F91F5
:100440000F9108958330C9F0843089F1823011F022
:1004500080E00895693019F417BA86B3089587B318
:1004600021E030E0062E02C0220F331F0A94E2F78B
:100470002095282327BB86B312C0693019F414BA1B
:1004800083B3089584B321E030E0062E02C0220F2A
:10049000331F0A94E2F72095282324BB83B390E00E
:1004A00002C0959587956A95E2F781700895693045
:1004B00019F411BA80B3089531B381E090E0062EAB
:1004C00002C0880F991F0A94E2F7282F2095232352
:1004D00021BB22B3822B82BB80B390E002C09595F2
:1004E00087956A95E2F7817008958330D1F1843061
:1004F00009F46BC0823009F09BC06B3521F48FEF9B
:1005000087BB48BB0895442321F0413009F090C0D7
:1005100014C0693021F48FEF87BB18BA089587B3F0
:1005200021E030E002C0220F331F6A95E2F7822BF0
:1005300087BB88B32095282312C0693021F48FEF40
:1005400087BB88BB089587B321E030E002C0220F4B
:10055000331F6A95E2F7822B87BB88B3282B28BB11
:1005600008956B3521F48FEF84BB45BB0895442378
:1005700021F0413009F05CC014C0693021F48FEFE4
:1005800084BB15BA089584B321E030E002C0220F85
:10059000331F6A95E2F7822B84BB85B3209528230D
:1005A00012C0693021F48FEF84BB85BB089584B3FA
:1005B00021E030E002C0220F331F6A95E2F7822B60
:1005C00084BB85B3282B25BB08956B3521F48FEFB1
:1005D00081BB42BB0895442319F0413049F515C051
:1005E000693021F48FEF81BB12BA089581B321E005
:1005F00030E002C0220F331F6A95E2F7822B81BBE5
:1006000082B32095282322BB0895693021F48FEF0F
:1006100081BB82BB089581B321E030E002C0220F8C
:10062000331F6A95E2F7822B81BB82B3282B22BB52
:100630000895833019F1843009F43CC0823009F008
:1006400054C0442321F0413009F04FC00CC027B3FF
:1006500081E090E002C0880F991F6A95E2F78095CB
:10066000822387BB089527B381E090E002C0880F02
:10067000991F6A95E2F7282B27BB0895442319F0A8
:10068000413099F50CC024B381E090E002C0880F9E
:10069000991F6A95E2F78095822384BB089524B35D
:1006A00081E090E002C0880F991F6A95E2F7282B3D
:1006B00024BB0895442319F04130B9F40CC021B390
:1006C00081E090E002C0880F991F6A95E2F780955B
:1006D000822381BB089521B381E090E002C0880F9E
:1006E000991F6A95E2F7282B21BB0895A1E21A2EE3
:1006F000AA1BBB1BFD010DC0AA1FBB1FEE1FFF1FC6
:10070000A217B307E407F50720F0A21BB30BE40B15
:10071000F50B661F771F881F991F1A9469F760955C
:100720007095809590959B01AC01BD01CF01089516
:10073000FC0188279927E89421912032E9F3293098
:1007400010F02E30C8F32B3239F02D3231F468948A
:1007500003C055D0820F911D219120532A30C8F338
:100760001EF4909581959F4F0895FB01DC01415047
:10077000504088F08D9181341CF08B350CF4805EF4
:10078000619161341CF06B350CF4605E861B611165
:1007900071F3990B0895881BFCCFFA01CF93FF9357
:1007A000EF9322303CF125322CF5C22FE894CA3069
:1007B00049F497FB3EF490958095709561957F4F35
:1007C0008F4F9F4F2C2F332744275527FF93EF93AD
:1007D0008DDFEF91FF91605D6A330CF0695D61938D
:1007E000B901CA01605070408040904059F716F43A
:1007F000CDE2C19310828F919F91CF9108C07AE092
:10080000979F902D879F802D910D11240895DC01D5
:10081000FC01672F71917723E1F7329704C07C9137
:100820006D9370836291AE17BF07C8F30895F89473
:02083000FFCFF8
:100832006F6E6E006F66660030003100320033006A
:1008420034003500360037003800390031300000FE
:00000001FF
